{
  "abi": [
    {
      "type": "constructor",
      "inputs": [
        {
          "name": "_ticketPrice",
          "type": "uint256",
          "internalType": "uint256"
        }
      ],
      "stateMutability": "nonpayable"
    },
    {
      "type": "function",
      "name": "claimPot",
      "inputs": [],
      "outputs": [],
      "stateMutability": "nonpayable"
    },
    {
      "type": "function",
      "name": "collectAdminFee",
      "inputs": [],
      "outputs": [],
      "stateMutability": "nonpayable"
    },
    {
      "type": "function",
      "name": "currentLeader",
      "inputs": [],
      "outputs": [
        {
          "name": "",
          "type": "address",
          "internalType": "address payable"
        }
      ],
      "stateMutability": "view"
    },
    {
      "type": "function",
      "name": "lastPlayTime",
      "inputs": [],
      "outputs": [
        {
          "name": "",
          "type": "uint256",
          "internalType": "uint256"
        }
      ],
      "stateMutability": "view"
    },
    {
      "type": "function",
      "name": "owner",
      "inputs": [],
      "outputs": [
        {
          "name": "",
          "type": "address",
          "internalType": "address"
        }
      ],
      "stateMutability": "view"
    },
    {
      "type": "function",
      "name": "play",
      "inputs": [],
      "outputs": [],
      "stateMutability": "payable"
    },
    {
      "type": "function",
      "name": "potBalance",
      "inputs": [],
      "outputs": [
        {
          "name": "",
          "type": "uint256",
          "internalType": "uint256"
        }
      ],
      "stateMutability": "view"
    },
    {
      "type": "function",
      "name": "renounceOwnership",
      "inputs": [],
      "outputs": [],
      "stateMutability": "nonpayable"
    },
    {
      "type": "function",
      "name": "ticketPrice",
      "inputs": [],
      "outputs": [
        {
          "name": "",
          "type": "uint256",
          "internalType": "uint256"
        }
      ],
      "stateMutability": "view"
    },
    {
      "type": "function",
      "name": "transferOwnership",
      "inputs": [
        {
          "name": "newOwner",
          "type": "address",
          "internalType": "address"
        }
      ],
      "outputs": [],
      "stateMutability": "nonpayable"
    },
    {
      "type": "event",
      "name": "OwnershipTransferred",
      "inputs": [
        {
          "name": "previousOwner",
          "type": "address",
          "indexed": true,
          "internalType": "address"
        },
        {
          "name": "newOwner",
          "type": "address",
          "indexed": true,
          "internalType": "address"
        }
      ],
      "anonymous": false
    },
    {
      "type": "event",
      "name": "Played",
      "inputs": [
        {
          "name": "player",
          "type": "address",
          "indexed": true,
          "internalType": "address"
        }
      ],
      "anonymous": false
    },
    {
      "type": "event",
      "name": "PotClaimed",
      "inputs": [
        {
          "name": "winner",
          "type": "address",
          "indexed": true,
          "internalType": "address"
        }
      ],
      "anonymous": false
    },
    {
      "type": "error",
      "name": "OwnableInvalidOwner",
      "inputs": [
        {
          "name": "owner",
          "type": "address",
          "internalType": "address"
        }
      ]
    },
    {
      "type": "error",
      "name": "OwnableUnauthorizedAccount",
      "inputs": [
        {
          "name": "account",
          "type": "address",
          "internalType": "address"
        }
      ]
    },
    {
      "type": "error",
      "name": "ReentrancyGuardReentrantCall",
      "inputs": []
    }
  ],
  "bytecode": {
    "object": "0x608060405234801561001057600080fd5b5060405161069b38038061069b83398101604081905261002f916100be565b6001600055338061005a57604051631e4fbdf760e01b81526000600482015260240160405180910390fd5b6100638161006c565b506004556100d7565b600180546001600160a01b038381166001600160a01b0319831681179093556040519116919082907f8be0079c531659141344cd1fd0a4f28419497f9722a3daafe3b4186f6b6457e090600090a35050565b6000602082840312156100d057600080fd5b5051919050565b6105b5806100e66000396000f3fe6080604052600436106100915760003560e01c806393e84cd91161005957806393e84cd914610130578063ac4bd53a14610138578063bbce67ca14610158578063f2fde38b1461016e578063f688abd11461018e57600080fd5b8063105e46ca146100965780631209b1f6146100ad5780634111a197146100d6578063715018a6146100e95780638da5cb5b146100fe575b600080fd5b3480156100a257600080fd5b506100ab6101a3565b005b3480156100b957600080fd5b506100c360045481565b6040519081526020015b60405180910390f35b3480156100e257600080fd5b50476100c3565b3480156100f557600080fd5b506100ab6101b5565b34801561010a57600080fd5b506001546001600160a01b03165b6040516001600160a01b0390911681526020016100cd565b6100ab6101c7565b34801561014457600080fd5b50600354610118906001600160a01b031681565b34801561016457600080fd5b506100c360025481565b34801561017a57600080fd5b506100ab610189366004610506565b61025a565b34801561019a57600080fd5b506100ab610298565b6101ab610400565b6101b361042d565b565b6101bd610400565b6101b3600061048a565b60045434146102165760405162461bcd60e51b8152602060048201526016602482015275496e636f7272656374207469636b657420707269636560501b60448201526064015b60405180910390fd5b42600255600380546001600160a01b031916339081179091556040517f7c30c46017e6377826c6557f0d89e6760aced7a4ca61f469b1d729c50a81397c90600090a2565b610262610400565b6001600160a01b03811661028c57604051631e4fbdf760e01b81526000600482015260240161020d565b6102958161048a565b50565b6102a06104dc565b6003546001600160a01b0316331461030c5760405162461bcd60e51b815260206004820152602960248201527f4f6e6c79207468652063757272656e74206c65616465722063616e20636c61696044820152681b481d1a19481c1bdd60ba1b606482015260840161020d565b60025461031b90610e10610536565b42101561037c5760405162461bcd60e51b815260206004820152602960248201527f3120686f757220686173206e6f74207061737365642073696e636520746865206044820152686c61737420706c617960b81b606482015260840161020d565b61038461042d565b6003546040516001600160a01b03909116904780156108fc02916000818181858888f193505050501580156103bd573d6000803e3d6000fd5b506003546040516001600160a01b03909116907f7a2d55fd4527ae03999c58391b65b9ce622d02bf5e1504c4ffbb36a93eca527090600090a26101b36001600055565b6001546001600160a01b031633146101b35760405163118cdaa760e01b815233600482015260240161020d565b600061043a60644761055d565b905061044e6001546001600160a01b031690565b6001600160a01b03166108fc829081150290604051600060405180830381858888f19350505050158015610486573d6000803e3d6000fd5b5050565b600180546001600160a01b038381166001600160a01b0319831681179093556040519116919082907f8be0079c531659141344cd1fd0a4f28419497f9722a3daafe3b4186f6b6457e090600090a35050565b6002600054036104ff57604051633ee5aeb560e01b815260040160405180910390fd5b6002600055565b60006020828403121561051857600080fd5b81356001600160a01b038116811461052f57600080fd5b9392505050565b8082018082111561055757634e487b7160e01b600052601160045260246000fd5b92915050565b60008261057a57634e487b7160e01b600052601260045260246000fd5b50049056fea2646970667358221220794ee06ab8b61fa7b0c7833d5d805a87cd19e6f338f08452f0739879320311ba64736f6c63430008170033",
    "linkReferences": {}
  },
  "methodIdentifiers": {
    "claimPot()": "f688abd1",
    "collectAdminFee()": "105e46ca",
    "currentLeader()": "ac4bd53a",
    "lastPlayTime()": "bbce67ca",
    "owner()": "8da5cb5b",
    "play()": "93e84cd9",
    "potBalance()": "4111a197",
    "renounceOwnership()": "715018a6",
    "ticketPrice()": "1209b1f6",
    "transferOwnership(address)": "f2fde38b"
  },
  "id": 25
}